{
  "_format": "hh-sol-artifact-1",
  "contractName": "FarmSupplyChain",
  "sourceName": "contracts/FarmSupplyChain.sol",
  "abi": [
    {
      "inputs": [],
      "stateMutability": "nonpayable",
      "type": "constructor"
    },
    {
      "inputs": [],
      "name": "EnforcedPause",
      "type": "error"
    },
    {
      "inputs": [],
      "name": "ExpectedPause",
      "type": "error"
    },
    {
      "inputs": [],
      "name": "ReentrancyGuardReentrantCall",
      "type": "error"
    },
    {
      "anonymous": false,
      "inputs": [
        {
          "indexed": true,
          "internalType": "uint256",
          "name": "id",
          "type": "uint256"
        },
        {
          "indexed": true,
          "internalType": "address",
          "name": "distributor",
          "type": "address"
        }
      ],
      "name": "BatchDistributed",
      "type": "event"
    },
    {
      "anonymous": false,
      "inputs": [
        {
          "indexed": true,
          "internalType": "uint256",
          "name": "id",
          "type": "uint256"
        },
        {
          "indexed": true,
          "internalType": "uint256",
          "name": "bulkSupplyId",
          "type": "uint256"
        },
        {
          "indexed": true,
          "internalType": "address",
          "name": "processor",
          "type": "address"
        },
        {
          "indexed": false,
          "internalType": "uint256",
          "name": "quantity",
          "type": "uint256"
        }
      ],
      "name": "BatchProcessed",
      "type": "event"
    },
    {
      "anonymous": false,
      "inputs": [
        {
          "indexed": true,
          "internalType": "uint256",
          "name": "id",
          "type": "uint256"
        },
        {
          "indexed": true,
          "internalType": "address",
          "name": "inspector",
          "type": "address"
        },
        {
          "indexed": true,
          "internalType": "string",
          "name": "qualityGrade",
          "type": "string"
        }
      ],
      "name": "BatchQualityChecked",
      "type": "event"
    },
    {
      "anonymous": false,
      "inputs": [
        {
          "indexed": true,
          "internalType": "uint256",
          "name": "id",
          "type": "uint256"
        },
        {
          "indexed": false,
          "internalType": "string",
          "name": "name",
          "type": "string"
        },
        {
          "indexed": true,
          "internalType": "address",
          "name": "farmer",
          "type": "address"
        },
        {
          "indexed": false,
          "internalType": "uint256",
          "name": "quantity",
          "type": "uint256"
        },
        {
          "indexed": false,
          "internalType": "string",
          "name": "unit",
          "type": "string"
        },
        {
          "indexed": false,
          "internalType": "uint256",
          "name": "pricePerUnit",
          "type": "uint256"
        }
      ],
      "name": "BulkSupplyRegistered",
      "type": "event"
    },
    {
      "anonymous": false,
      "inputs": [
        {
          "indexed": false,
          "internalType": "address",
          "name": "account",
          "type": "address"
        }
      ],
      "name": "Paused",
      "type": "event"
    },
    {
      "anonymous": false,
      "inputs": [
        {
          "indexed": true,
          "internalType": "uint256",
          "name": "_supplyId",
          "type": "uint256"
        },
        {
          "indexed": true,
          "internalType": "address",
          "name": "processor",
          "type": "address"
        },
        {
          "indexed": false,
          "internalType": "string",
          "name": "_qualityGrade",
          "type": "string"
        }
      ],
      "name": "ReportSuplyQuality",
      "type": "event"
    },
    {
      "anonymous": false,
      "inputs": [
        {
          "indexed": true,
          "internalType": "uint256",
          "name": "id",
          "type": "uint256"
        },
        {
          "indexed": true,
          "internalType": "uint256",
          "name": "batchId",
          "type": "uint256"
        },
        {
          "indexed": true,
          "internalType": "address",
          "name": "retailer",
          "type": "address"
        },
        {
          "indexed": false,
          "internalType": "uint256",
          "name": "price",
          "type": "uint256"
        }
      ],
      "name": "UnitRetailed",
      "type": "event"
    },
    {
      "anonymous": false,
      "inputs": [
        {
          "indexed": true,
          "internalType": "uint256",
          "name": "id",
          "type": "uint256"
        },
        {
          "indexed": true,
          "internalType": "address",
          "name": "consumer",
          "type": "address"
        }
      ],
      "name": "UnitSold",
      "type": "event"
    },
    {
      "anonymous": false,
      "inputs": [
        {
          "indexed": false,
          "internalType": "address",
          "name": "account",
          "type": "address"
        }
      ],
      "name": "Unpaused",
      "type": "event"
    },
    {
      "inputs": [],
      "name": "ADMIN_ROLE",
      "outputs": [
        {
          "internalType": "bytes32",
          "name": "",
          "type": "bytes32"
        }
      ],
      "stateMutability": "view",
      "type": "function"
    },
    {
      "inputs": [],
      "name": "DISTRIBUTOR_ROLE",
      "outputs": [
        {
          "internalType": "bytes32",
          "name": "",
          "type": "bytes32"
        }
      ],
      "stateMutability": "view",
      "type": "function"
    },
    {
      "inputs": [],
      "name": "FARMER_ROLE",
      "outputs": [
        {
          "internalType": "bytes32",
          "name": "",
          "type": "bytes32"
        }
      ],
      "stateMutability": "view",
      "type": "function"
    },
    {
      "inputs": [],
      "name": "PROCESSOR_ROLE",
      "outputs": [
        {
          "internalType": "bytes32",
          "name": "",
          "type": "bytes32"
        }
      ],
      "stateMutability": "view",
      "type": "function"
    },
    {
      "inputs": [],
      "name": "QUALITY_INSPECTOR_ROLE",
      "outputs": [
        {
          "internalType": "bytes32",
          "name": "",
          "type": "bytes32"
        }
      ],
      "stateMutability": "view",
      "type": "function"
    },
    {
      "inputs": [],
      "name": "RETAILER_ROLE",
      "outputs": [
        {
          "internalType": "bytes32",
          "name": "",
          "type": "bytes32"
        }
      ],
      "stateMutability": "view",
      "type": "function"
    },
    {
      "inputs": [
        {
          "internalType": "uint256",
          "name": "",
          "type": "uint256"
        },
        {
          "internalType": "uint256",
          "name": "",
          "type": "uint256"
        }
      ],
      "name": "batchToUnits",
      "outputs": [
        {
          "internalType": "uint256",
          "name": "",
          "type": "uint256"
        }
      ],
      "stateMutability": "view",
      "type": "function"
    },
    {
      "inputs": [
        {
          "internalType": "uint256",
          "name": "",
          "type": "uint256"
        }
      ],
      "name": "bulkSupplies",
      "outputs": [
        {
          "internalType": "uint256",
          "name": "id",
          "type": "uint256"
        },
        {
          "internalType": "string",
          "name": "name",
          "type": "string"
        },
        {
          "internalType": "address",
          "name": "farmer",
          "type": "address"
        },
        {
          "internalType": "uint256",
          "name": "quantity",
          "type": "uint256"
        },
        {
          "internalType": "string",
          "name": "unit",
          "type": "string"
        },
        {
          "internalType": "uint256",
          "name": "pricePerUnit",
          "type": "uint256"
        },
        {
          "internalType": "string",
          "name": "originLocation",
          "type": "string"
        },
        {
          "internalType": "string",
          "name": "qualityGrade",
          "type": "string"
        },
        {
          "internalType": "enum IFarmSupplyChain.SupplyState",
          "name": "state",
          "type": "uint8"
        }
      ],
      "stateMutability": "view",
      "type": "function"
    },
    {
      "inputs": [
        {
          "internalType": "uint256",
          "name": "",
          "type": "uint256"
        },
        {
          "internalType": "uint256",
          "name": "",
          "type": "uint256"
        }
      ],
      "name": "bulkSupplyToBatches",
      "outputs": [
        {
          "internalType": "uint256",
          "name": "",
          "type": "uint256"
        }
      ],
      "stateMutability": "view",
      "type": "function"
    },
    {
      "inputs": [
        {
          "internalType": "uint256",
          "name": "_retailId",
          "type": "uint256"
        },
        {
          "internalType": "uint256",
          "name": "_batchId",
          "type": "uint256"
        },
        {
          "internalType": "uint256",
          "name": "_quantity",
          "type": "uint256"
        },
        {
          "internalType": "uint256",
          "name": "_pricePerUnit",
          "type": "uint256"
        }
      ],
      "name": "createRetailUnits",
      "outputs": [],
      "stateMutability": "nonpayable",
      "type": "function"
    },
    {
      "inputs": [
        {
          "internalType": "address",
          "name": "_account",
          "type": "address"
        },
        {
          "internalType": "string",
          "name": "_role",
          "type": "string"
        }
      ],
      "name": "createRole",
      "outputs": [],
      "stateMutability": "nonpayable",
      "type": "function"
    },
    {
      "inputs": [
        {
          "internalType": "uint256",
          "name": "_batchId",
          "type": "uint256"
        }
      ],
      "name": "distributeBatch",
      "outputs": [],
      "stateMutability": "nonpayable",
      "type": "function"
    },
    {
      "inputs": [
        {
          "internalType": "address",
          "name": "",
          "type": "address"
        },
        {
          "internalType": "uint256",
          "name": "",
          "type": "uint256"
        }
      ],
      "name": "farmerSupplies",
      "outputs": [
        {
          "internalType": "uint256",
          "name": "",
          "type": "uint256"
        }
      ],
      "stateMutability": "view",
      "type": "function"
    },
    {
      "inputs": [
        {
          "internalType": "uint256",
          "name": "_batchId",
          "type": "uint256"
        }
      ],
      "name": "getBatchUnits",
      "outputs": [
        {
          "internalType": "uint256[]",
          "name": "",
          "type": "uint256[]"
        }
      ],
      "stateMutability": "view",
      "type": "function"
    },
    {
      "inputs": [
        {
          "internalType": "uint256",
          "name": "_bulkSupplyId",
          "type": "uint256"
        }
      ],
      "name": "getBulkSupplyBatches",
      "outputs": [
        {
          "internalType": "uint256[]",
          "name": "",
          "type": "uint256[]"
        }
      ],
      "stateMutability": "view",
      "type": "function"
    },
    {
      "inputs": [
        {
          "internalType": "address",
          "name": "_farmer",
          "type": "address"
        }
      ],
      "name": "getFarmerSupplies",
      "outputs": [
        {
          "internalType": "uint256[]",
          "name": "",
          "type": "uint256[]"
        }
      ],
      "stateMutability": "view",
      "type": "function"
    },
    {
      "inputs": [
        {
          "internalType": "address",
          "name": "_processor",
          "type": "address"
        }
      ],
      "name": "getProcessorBatches",
      "outputs": [
        {
          "internalType": "uint256[]",
          "name": "",
          "type": "uint256[]"
        }
      ],
      "stateMutability": "view",
      "type": "function"
    },
    {
      "inputs": [
        {
          "internalType": "address",
          "name": "_retailer",
          "type": "address"
        }
      ],
      "name": "getRetailerUnits",
      "outputs": [
        {
          "internalType": "uint256[]",
          "name": "",
          "type": "uint256[]"
        }
      ],
      "stateMutability": "view",
      "type": "function"
    },
    {
      "inputs": [
        {
          "internalType": "uint256",
          "name": "_unitId",
          "type": "uint256"
        }
      ],
      "name": "getUnitHistory",
      "outputs": [
        {
          "internalType": "uint256",
          "name": "unitId",
          "type": "uint256"
        },
        {
          "internalType": "uint256",
          "name": "batchId",
          "type": "uint256"
        },
        {
          "internalType": "uint256",
          "name": "bulkSupplyId",
          "type": "uint256"
        },
        {
          "internalType": "address",
          "name": "farmer",
          "type": "address"
        },
        {
          "internalType": "address",
          "name": "processor",
          "type": "address"
        },
        {
          "internalType": "address",
          "name": "retailer",
          "type": "address"
        },
        {
          "internalType": "address",
          "name": "consumer",
          "type": "address"
        },
        {
          "internalType": "string",
          "name": "productName",
          "type": "string"
        },
        {
          "internalType": "string",
          "name": "originLocation",
          "type": "string"
        },
        {
          "internalType": "uint256",
          "name": "processingDate",
          "type": "uint256"
        },
        {
          "internalType": "string",
          "name": "qualityGrade",
          "type": "string"
        }
      ],
      "stateMutability": "view",
      "type": "function"
    },
    {
      "inputs": [],
      "name": "pause",
      "outputs": [],
      "stateMutability": "nonpayable",
      "type": "function"
    },
    {
      "inputs": [],
      "name": "paused",
      "outputs": [
        {
          "internalType": "bool",
          "name": "",
          "type": "bool"
        }
      ],
      "stateMutability": "view",
      "type": "function"
    },
    {
      "inputs": [
        {
          "internalType": "uint256",
          "name": "_batchId",
          "type": "uint256"
        },
        {
          "internalType": "uint256",
          "name": "_bulkSupplyId",
          "type": "uint256"
        },
        {
          "internalType": "uint256",
          "name": "_quantity",
          "type": "uint256"
        }
      ],
      "name": "processBatch",
      "outputs": [],
      "stateMutability": "nonpayable",
      "type": "function"
    },
    {
      "inputs": [
        {
          "internalType": "uint256",
          "name": "",
          "type": "uint256"
        }
      ],
      "name": "processedBatches",
      "outputs": [
        {
          "internalType": "uint256",
          "name": "id",
          "type": "uint256"
        },
        {
          "internalType": "uint256",
          "name": "bulkSupplyId",
          "type": "uint256"
        },
        {
          "internalType": "address",
          "name": "processor",
          "type": "address"
        },
        {
          "internalType": "uint256",
          "name": "quantity",
          "type": "uint256"
        },
        {
          "internalType": "uint256",
          "name": "processingDate",
          "type": "uint256"
        },
        {
          "internalType": "string",
          "name": "qualityGrade",
          "type": "string"
        },
        {
          "internalType": "enum IFarmSupplyChain.SupplyState",
          "name": "state",
          "type": "uint8"
        }
      ],
      "stateMutability": "view",
      "type": "function"
    },
    {
      "inputs": [
        {
          "internalType": "address",
          "name": "",
          "type": "address"
        },
        {
          "internalType": "uint256",
          "name": "",
          "type": "uint256"
        }
      ],
      "name": "processorBatches",
      "outputs": [
        {
          "internalType": "uint256",
          "name": "",
          "type": "uint256"
        }
      ],
      "stateMutability": "view",
      "type": "function"
    },
    {
      "inputs": [
        {
          "internalType": "uint256",
          "name": "_supplyId",
          "type": "uint256"
        },
        {
          "internalType": "string",
          "name": "_name",
          "type": "string"
        },
        {
          "internalType": "uint256",
          "name": "_quantity",
          "type": "uint256"
        },
        {
          "internalType": "string",
          "name": "_unit",
          "type": "string"
        },
        {
          "internalType": "uint256",
          "name": "_pricePerUnit",
          "type": "uint256"
        },
        {
          "internalType": "string",
          "name": "_originLocation",
          "type": "string"
        }
      ],
      "name": "registerBulkSupply",
      "outputs": [],
      "stateMutability": "nonpayable",
      "type": "function"
    },
    {
      "inputs": [
        {
          "internalType": "address",
          "name": "_account",
          "type": "address"
        }
      ],
      "name": "removeRole",
      "outputs": [],
      "stateMutability": "nonpayable",
      "type": "function"
    },
    {
      "inputs": [
        {
          "internalType": "uint256",
          "name": "_batchId",
          "type": "uint256"
        },
        {
          "internalType": "string",
          "name": "_qualityGrade",
          "type": "string"
        }
      ],
      "name": "reportBatchQuality",
      "outputs": [],
      "stateMutability": "nonpayable",
      "type": "function"
    },
    {
      "inputs": [
        {
          "internalType": "uint256",
          "name": "_supplyId",
          "type": "uint256"
        },
        {
          "internalType": "string",
          "name": "_qualityGrade",
          "type": "string"
        }
      ],
      "name": "reportSupplyQuality",
      "outputs": [],
      "stateMutability": "nonpayable",
      "type": "function"
    },
    {
      "inputs": [
        {
          "internalType": "uint256",
          "name": "",
          "type": "uint256"
        }
      ],
      "name": "retailUnits",
      "outputs": [
        {
          "internalType": "uint256",
          "name": "id",
          "type": "uint256"
        },
        {
          "internalType": "uint256",
          "name": "batchId",
          "type": "uint256"
        },
        {
          "internalType": "address",
          "name": "retailer",
          "type": "address"
        },
        {
          "internalType": "address",
          "name": "consumer",
          "type": "address"
        },
        {
          "internalType": "uint256",
          "name": "price",
          "type": "uint256"
        },
        {
          "internalType": "enum IFarmSupplyChain.SupplyState",
          "name": "state",
          "type": "uint8"
        }
      ],
      "stateMutability": "view",
      "type": "function"
    },
    {
      "inputs": [
        {
          "internalType": "address",
          "name": "",
          "type": "address"
        },
        {
          "internalType": "uint256",
          "name": "",
          "type": "uint256"
        }
      ],
      "name": "retailerUnits",
      "outputs": [
        {
          "internalType": "uint256",
          "name": "",
          "type": "uint256"
        }
      ],
      "stateMutability": "view",
      "type": "function"
    },
    {
      "inputs": [
        {
          "internalType": "address",
          "name": "_account",
          "type": "address"
        }
      ],
      "name": "role",
      "outputs": [
        {
          "internalType": "string",
          "name": "",
          "type": "string"
        }
      ],
      "stateMutability": "view",
      "type": "function"
    },
    {
      "inputs": [
        {
          "internalType": "uint256",
          "name": "_unitId",
          "type": "uint256"
        }
      ],
      "name": "sellUnit",
      "outputs": [],
      "stateMutability": "payable",
      "type": "function"
    },
    {
      "inputs": [],
      "name": "unpause",
      "outputs": [],
      "stateMutability": "nonpayable",
      "type": "function"
    }
  ],
  "bytecode": "0x608060405234801561001057600080fd5b5060016000819055506000600160006101000a81548160ff021916908315150217905550610079336040518060400160405280600a81526020017f41444d494e5f524f4c450000000000000000000000000000000000000000000081525061007e60201b60201c565b610174565b8060405160200161008f919061015d565b60405160208183030381529060405280519060200120600e60008473ffffffffffffffffffffffffffffffffffffffff1673ffffffffffffffffffffffffffffffffffffffff168152602001908152602001600020819055505050565b600081519050919050565b600081905092915050565b60005b83811015610120578082015181840152602081019050610105565b60008484015250505050565b6000610137826100ec565b61014181856100f7565b9350610151818560208601610102565b80840191505092915050565b6000610169828461012c565b915081905092915050565b614db6806101836000396000f3fe6080604052600436106101ee5760003560e01c806375b238fc1161010d578063bfc266f9116100a0578063f0bd87cc1161006f578063f0bd87cc1461077d578063f3943970146107a8578063f7529d90146107d3578063fdbb7964146107fc578063fef30a3714610839576101ee565b8063bfc266f91461069d578063c3163488146106c6578063d590f8c914610703578063e581c49114610740576101ee565b806386ce7509116100dc57806386ce7509146105ca5780639560419f1461060757806395f2e02f14610644578063b742a75114610681576101ee565b806375b238fc1461051a5780637ee35ef3146105455780638222bdb2146105885780638456cb59146105b3576101ee565b80633b510b1d116101855780635c975abb116101545780635c975abb1461044457806368a22ee01461046f5780636a131175146104ac5780636a4e5cf7146104d5576101ee565b80633b510b1d146103975780633f4ba83a146103d95780634762155d146103f05780634e20c36214610419576101ee565b80631d7d1a2e116101c15780631d7d1a2e146102dd5780632115e7bf1461030657806325b3557f14610331578063345b2bec1461035a576101ee565b80630866b86b146101f3578063187f0df6146102305780631cbef6ba146102775780631cbf96b7146102b4575b600080fd5b3480156101ff57600080fd5b5061021a600480360381019061021591906138e0565b610862565b60405161022791906139cb565b60405180910390f35b34801561023c57600080fd5b50610257600480360381019061025291906138e0565b6108cd565b60405161026e9b9a99989796959493929190613acd565b60405180910390f35b34801561028357600080fd5b5061029e60048036038101906102999190613bb9565b610bac565b6040516102ab91906139cb565b60405180910390f35b3480156102c057600080fd5b506102db60048036038101906102d69190613d1b565b610c43565b005b3480156102e957600080fd5b5061030460048036038101906102ff9190613dfc565b611084565b005b34801561031257600080fd5b5061031b61127a565b6040516103289190613e71565b60405180910390f35b34801561033d57600080fd5b5061035860048036038101906103539190613dfc565b61129e565b005b34801561036657600080fd5b50610381600480360381019061037c9190613e8c565b611747565b60405161038e9190613ecc565b60405180910390f35b3480156103a357600080fd5b506103be60048036038101906103b991906138e0565b611778565b6040516103d096959493929190613f5e565b60405180910390f35b3480156103e557600080fd5b506103ee611801565b005b3480156103fc57600080fd5b5061041760048036038101906104129190613bb9565b6118ae565b005b34801561042557600080fd5b5061042e6119b8565b60405161043b9190613e71565b60405180910390f35b34801561045057600080fd5b506104596119dc565b6040516104669190613fda565b60405180910390f35b34801561047b57600080fd5b50610496600480360381019061049191906138e0565b6119f3565b6040516104a391906139cb565b60405180910390f35b3480156104b857600080fd5b506104d360048036038101906104ce91906138e0565b611a5e565b005b3480156104e157600080fd5b506104fc60048036038101906104f791906138e0565b611c19565b60405161051199989796959493929190613ff5565b60405180910390f35b34801561052657600080fd5b5061052f611eb4565b60405161053c9190613e71565b60405180910390f35b34801561055157600080fd5b5061056c600480360381019061056791906138e0565b611ed8565b60405161057f979695949392919061409e565b60405180910390f35b34801561059457600080fd5b5061059d611fcf565b6040516105aa9190613e71565b60405180910390f35b3480156105bf57600080fd5b506105c8611ff3565b005b3480156105d657600080fd5b506105f160048036038101906105ec9190614114565b6120a0565b6040516105fe9190613ecc565b60405180910390f35b34801561061357600080fd5b5061062e60048036038101906106299190613bb9565b6120d1565b60405161063b91906139cb565b60405180910390f35b34801561065057600080fd5b5061066b60048036038101906106669190613e8c565b612168565b6040516106789190613ecc565b60405180910390f35b61069b600480360381019061069691906138e0565b612199565b005b3480156106a957600080fd5b506106c460048036038101906106bf9190614154565b6123aa565b005b3480156106d257600080fd5b506106ed60048036038101906106e89190614114565b61245b565b6040516106fa9190613ecc565b60405180910390f35b34801561070f57600080fd5b5061072a60048036038101906107259190613bb9565b61248c565b60405161073791906141b0565b60405180910390f35b34801561074c57600080fd5b5061076760048036038101906107629190613e8c565b61270a565b6040516107749190613ecc565b60405180910390f35b34801561078957600080fd5b5061079261273b565b60405161079f9190613e71565b60405180910390f35b3480156107b457600080fd5b506107bd61275f565b6040516107ca9190613e71565b60405180910390f35b3480156107df57600080fd5b506107fa60048036038101906107f591906141d2565b612783565b005b34801561080857600080fd5b50610823600480360381019061081e9190613bb9565b612ef2565b60405161083091906139cb565b60405180910390f35b34801561084557600080fd5b50610860600480360381019061085b9190614225565b612f89565b005b6060600a60008381526020019081526020016000208054806020026020016040519081016040528092919081815260200182805480156108c157602002820191906000526020600020905b8154815260200190600101908083116108ad575b50505050509050919050565b6000806000806000806000606080600060606000600860008e815260200190815260200160002090506000600760008360010154815260200190815260200160002090506000600660008360010154815260200190815260200160002090508260000154836001015483600101548360020160009054906101000a900473ffffffffffffffffffffffffffffffffffffffff168560020160009054906101000a900473ffffffffffffffffffffffffffffffffffffffff168760020160009054906101000a900473ffffffffffffffffffffffffffffffffffffffff168860030160009054906101000a900473ffffffffffffffffffffffffffffffffffffffff1687600101886006018a600401548b6005018380546109ec906142bb565b80601f0160208091040260200160405190810160405280929190818152602001828054610a18906142bb565b8015610a655780601f10610a3a57610100808354040283529160200191610a65565b820191906000526020600020905b815481529060010190602001808311610a4857829003601f168201915b50505050509350828054610a78906142bb565b80601f0160208091040260200160405190810160405280929190818152602001828054610aa4906142bb565b8015610af15780601f10610ac657610100808354040283529160200191610af1565b820191906000526020600020905b815481529060010190602001808311610ad457829003601f168201915b50505050509250808054610b04906142bb565b80601f0160208091040260200160405190810160405280929190818152602001828054610b30906142bb565b8015610b7d5780601f10610b5257610100808354040283529160200191610b7d565b820191906000526020600020905b815481529060010190602001808311610b6057829003601f168201915b505050505090509d509d509d509d509d509d509d509d509d509d509d5050505091939597999b90929496989a50565b6060600b60008373ffffffffffffffffffffffffffffffffffffffff1673ffffffffffffffffffffffffffffffffffffffff168152602001908152602001600020805480602002602001604051908101604052809291908181526020018280548015610c3757602002820191906000526020600020905b815481526020019060010190808311610c23575b50505050509050919050565b7f7c6181838a71a779e445600d4c6ecbe16bacf2b3c5bda69c29fada66d1b645d180600e60003373ffffffffffffffffffffffffffffffffffffffff1673ffffffffffffffffffffffffffffffffffffffff1681526020019081526020016000205414610ce5576040517f08c379a0000000000000000000000000000000000000000000000000000000008152600401610cdc90614338565b60405180910390fd5b610ced613625565b60008511610d30576040517f08c379a0000000000000000000000000000000000000000000000000000000008152600401610d27906143ca565b60405180910390fd5b60008311610d73576040517f08c379a0000000000000000000000000000000000000000000000000000000008152600401610d6a9061445c565b60405180910390fd5b600060066000898152602001908152602001600020905087816000018190555086816001019081610da49190614628565b50338160020160006101000a81548173ffffffffffffffffffffffffffffffffffffffff021916908373ffffffffffffffffffffffffffffffffffffffff16021790555085816003018190555084816004019081610e029190614628565b5083816005018190555082816006019081610e1d9190614628565b506040518060400160405280600481526020017f4e756c6c00000000000000000000000000000000000000000000000000000000815250816007019081610e649190614628565b5060008160080160006101000a81548160ff02191690836005811115610e8d57610e8c613ee7565b5b021790555080600660008a81526020019081526020016000206000820154816000015560018201816001019081610ec49190614710565b506002820160009054906101000a900473ffffffffffffffffffffffffffffffffffffffff168160020160006101000a81548173ffffffffffffffffffffffffffffffffffffffff021916908373ffffffffffffffffffffffffffffffffffffffff1602179055506003820154816003015560048201816004019081610f4a9190614710565b506005820154816005015560068201816006019081610f699190614710565b5060078201816007019081610f7e9190614710565b506008820160009054906101000a900460ff168160080160006101000a81548160ff02191690836005811115610fb757610fb6613ee7565b5b0217905550905050600b60003373ffffffffffffffffffffffffffffffffffffffff1673ffffffffffffffffffffffffffffffffffffffff1681526020019081526020016000208890806001815401808255809150506001900390600052602060002001600090919091909150553373ffffffffffffffffffffffffffffffffffffffff16887f18eed3a83f740cd248edb7cb90d062bcba987e3a6296453dcb0e174c03ffe5a68989898960405161107294939291906147f8565b60405180910390a35050505050505050565b7f66108bb9ee7f804cb1c563794e51989792a366e4b648e4b2b9189d9587e1880d80600e60003373ffffffffffffffffffffffffffffffffffffffff1673ffffffffffffffffffffffffffffffffffffffff1681526020019081526020016000205414611126576040517f08c379a000000000000000000000000000000000000000000000000000000000815260040161111d90614338565b60405180910390fd5b61112e613625565b6001600581111561114257611141613ee7565b5b6007600085815260200190815260200160002060060160009054906101000a900460ff16600581111561117857611177613ee7565b5b146111b8576040517f08c379a00000000000000000000000000000000000000000000000000000000081526004016111af90614897565b60405180910390fd5b816007600085815260200190815260200160002060050190816111db9190614628565b5060026007600085815260200190815260200160002060060160006101000a81548160ff0219169083600581111561121657611215613ee7565b5b02179055508160405161122991906148f3565b60405180910390203373ffffffffffffffffffffffffffffffffffffffff16847f9d753b365824c361cec419758c5f2b8546da1f4e90a776d5c7c0ca0a5141d34d60405160405180910390a4505050565b7f2a5f906c256a5d799494fcd066e1f6c077689de1cdb65052a1624de4bace99bf81565b7fe61decff6e4a5c6b5a3d3cbd28f882e595173563b49353ce5f31dba2de7f05ee80600e60003373ffffffffffffffffffffffffffffffffffffffff1673ffffffffffffffffffffffffffffffffffffffff1681526020019081526020016000205414611340576040517f08c379a000000000000000000000000000000000000000000000000000000000815260040161133790614338565b60405180910390fd5b611348613625565b6000600660008581526020019081526020016000206040518061012001604052908160008201548152602001600182018054611383906142bb565b80601f01602080910402602001604051908101604052809291908181526020018280546113af906142bb565b80156113fc5780601f106113d1576101008083540402835291602001916113fc565b820191906000526020600020905b8154815290600101906020018083116113df57829003601f168201915b505050505081526020016002820160009054906101000a900473ffffffffffffffffffffffffffffffffffffffff1673ffffffffffffffffffffffffffffffffffffffff1673ffffffffffffffffffffffffffffffffffffffff16815260200160038201548152602001600482018054611475906142bb565b80601f01602080910402602001604051908101604052809291908181526020018280546114a1906142bb565b80156114ee5780601f106114c3576101008083540402835291602001916114ee565b820191906000526020600020905b8154815290600101906020018083116114d157829003601f168201915b5050505050815260200160058201548152602001600682018054611511906142bb565b80601f016020809104026020016040519081016040528092919081815260200182805461153d906142bb565b801561158a5780601f1061155f5761010080835404028352916020019161158a565b820191906000526020600020905b81548152906001019060200180831161156d57829003601f168201915b505050505081526020016007820180546115a3906142bb565b80601f01602080910402602001604051908101604052809291908181526020018280546115cf906142bb565b801561161c5780601f106115f15761010080835404028352916020019161161c565b820191906000526020600020905b8154815290600101906020018083116115ff57829003601f168201915b505050505081526020016008820160009054906101000a900460ff16600581111561164a57611649613ee7565b5b600581111561165c5761165b613ee7565b5b8152505090506000600581111561167657611675613ee7565b5b816101000151600581111561168e5761168d613ee7565b5b146116ce576040517f08c379a00000000000000000000000000000000000000000000000000000000081526004016116c590614956565b60405180910390fd5b826006600086815260200190815260200160002060070190816116f19190614628565b503373ffffffffffffffffffffffffffffffffffffffff16847f5dcb18e08afb44f6a7c30f64fedf402df69f1649ca956b63cc1c065586f389af8560405161173991906141b0565b60405180910390a350505050565b600d602052816000526040600020818154811061176357600080fd5b90600052602060002001600091509150505481565b60086020528060005260406000206000915090508060000154908060010154908060020160009054906101000a900473ffffffffffffffffffffffffffffffffffffffff16908060030160009054906101000a900473ffffffffffffffffffffffffffffffffffffffff16908060040154908060050160009054906101000a900460ff16905086565b7fa49807205ce4d355092ef5a8a18f56e8913cf4a201fbe287825b095693c2177580600e60003373ffffffffffffffffffffffffffffffffffffffff1673ffffffffffffffffffffffffffffffffffffffff16815260200190815260200160002054146118a3576040517f08c379a000000000000000000000000000000000000000000000000000000000815260040161189a90614338565b60405180910390fd5b6118ab613666565b50565b7fa49807205ce4d355092ef5a8a18f56e8913cf4a201fbe287825b095693c2177580600e60003373ffffffffffffffffffffffffffffffffffffffff1673ffffffffffffffffffffffffffffffffffffffff1681526020019081526020016000205414611950576040517f08c379a000000000000000000000000000000000000000000000000000000000815260040161194790614338565b60405180910390fd5b7f288a15c4a15d470e4cd9cad2f113b91206b520c26dbd3dd74627f0c057baa19c600e60008473ffffffffffffffffffffffffffffffffffffffff1673ffffffffffffffffffffffffffffffffffffffff168152602001908152602001600020819055505050565b7f66108bb9ee7f804cb1c563794e51989792a366e4b648e4b2b9189d9587e1880d81565b6000600160009054906101000a900460ff16905090565b606060096000838152602001908152602001600020805480602002602001604051908101604052809291908181526020018280548015611a5257602002820191906000526020600020905b815481526020019060010190808311611a3e575b50505050509050919050565b7ffbd454f36a7e1a388bd6fc3ab10d434aa4578f811acbbcf33afb1c697486313c80600e60003373ffffffffffffffffffffffffffffffffffffffff1673ffffffffffffffffffffffffffffffffffffffff1681526020019081526020016000205414611b00576040517f08c379a0000000000000000000000000000000000000000000000000000000008152600401611af790614338565b60405180910390fd5b611b08613625565b60026005811115611b1c57611b1b613ee7565b5b6007600084815260200190815260200160002060060160009054906101000a900460ff166005811115611b5257611b51613ee7565b5b14611b92576040517f08c379a0000000000000000000000000000000000000000000000000000000008152600401611b89906149e8565b60405180910390fd5b60036007600084815260200190815260200160002060060160006101000a81548160ff02191690836005811115611bcc57611bcb613ee7565b5b02179055503373ffffffffffffffffffffffffffffffffffffffff16827f1819b9d7d626ec3af4939bae99a343ea238d24bd02ab7d976f339a8fd158f37260405160405180910390a35050565b6006602052806000526040600020600091509050806000015490806001018054611c42906142bb565b80601f0160208091040260200160405190810160405280929190818152602001828054611c6e906142bb565b8015611cbb5780601f10611c9057610100808354040283529160200191611cbb565b820191906000526020600020905b815481529060010190602001808311611c9e57829003601f168201915b5050505050908060020160009054906101000a900473ffffffffffffffffffffffffffffffffffffffff1690806003015490806004018054611cfc906142bb565b80601f0160208091040260200160405190810160405280929190818152602001828054611d28906142bb565b8015611d755780601f10611d4a57610100808354040283529160200191611d75565b820191906000526020600020905b815481529060010190602001808311611d5857829003601f168201915b505050505090806005015490806006018054611d90906142bb565b80601f0160208091040260200160405190810160405280929190818152602001828054611dbc906142bb565b8015611e095780601f10611dde57610100808354040283529160200191611e09565b820191906000526020600020905b815481529060010190602001808311611dec57829003601f168201915b505050505090806007018054611e1e906142bb565b80601f0160208091040260200160405190810160405280929190818152602001828054611e4a906142bb565b8015611e975780601f10611e6c57610100808354040283529160200191611e97565b820191906000526020600020905b815481529060010190602001808311611e7a57829003601f168201915b5050505050908060080160009054906101000a900460ff16905089565b7fa49807205ce4d355092ef5a8a18f56e8913cf4a201fbe287825b095693c2177581565b60076020528060005260406000206000915090508060000154908060010154908060020160009054906101000a900473ffffffffffffffffffffffffffffffffffffffff1690806003015490806004015490806005018054611f39906142bb565b80601f0160208091040260200160405190810160405280929190818152602001828054611f65906142bb565b8015611fb25780601f10611f8757610100808354040283529160200191611fb2565b820191906000526020600020905b815481529060010190602001808311611f9557829003601f168201915b5050505050908060060160009054906101000a900460ff16905087565b7fe61decff6e4a5c6b5a3d3cbd28f882e595173563b49353ce5f31dba2de7f05ee81565b7fa49807205ce4d355092ef5a8a18f56e8913cf4a201fbe287825b095693c2177580600e60003373ffffffffffffffffffffffffffffffffffffffff1673ffffffffffffffffffffffffffffffffffffffff1681526020019081526020016000205414612095576040517f08c379a000000000000000000000000000000000000000000000000000000000815260040161208c90614338565b60405180910390fd5b61209d6136c9565b50565b600960205281600052604060002081815481106120bc57600080fd5b90600052602060002001600091509150505481565b6060600c60008373ffffffffffffffffffffffffffffffffffffffff1673ffffffffffffffffffffffffffffffffffffffff16815260200190815260200160002080548060200260200160405190810160405280929190818152602001828054801561215c57602002820191906000526020600020905b815481526020019060010190808311612148575b50505050509050919050565b600b602052816000526040600020818154811061218457600080fd5b90600052602060002001600091509150505481565b6121a161372b565b6121a9613625565b6000600860008381526020019081526020016000209050600460058111156121d4576121d3613ee7565b5b8160050160009054906101000a900460ff1660058111156121f8576121f7613ee7565b5b14612238576040517f08c379a000000000000000000000000000000000000000000000000000000000815260040161222f90614a54565b60405180910390fd5b806004015434101561227f576040517f08c379a000000000000000000000000000000000000000000000000000000000815260040161227690614ac0565b60405180910390fd5b338160030160006101000a81548173ffffffffffffffffffffffffffffffffffffffff021916908373ffffffffffffffffffffffffffffffffffffffff16021790555060058160050160006101000a81548160ff021916908360058111156122ea576122e9613ee7565b5b02179055508060020160009054906101000a900473ffffffffffffffffffffffffffffffffffffffff1673ffffffffffffffffffffffffffffffffffffffff166108fc349081150290604051600060405180830381858888f19350505050158015612359573d6000803e3d6000fd5b503373ffffffffffffffffffffffffffffffffffffffff16827fb8daedd8d8dd0484ed87158d972b26f7c77587ae180a436fd120692cf409d5c160405160405180910390a3506123a7613771565b50565b7fa49807205ce4d355092ef5a8a18f56e8913cf4a201fbe287825b095693c2177580600e60003373ffffffffffffffffffffffffffffffffffffffff1673ffffffffffffffffffffffffffffffffffffffff168152602001908152602001600020541461244c576040517f08c379a000000000000000000000000000000000000000000000000000000000815260040161244390614338565b60405180910390fd5b612456838361377b565b505050565b600a602052816000526040600020818154811061247757600080fd5b90600052602060002001600091509150505481565b60606000600e60008473ffffffffffffffffffffffffffffffffffffffff1673ffffffffffffffffffffffffffffffffffffffff1681526020019081526020016000205490507f7c6181838a71a779e445600d4c6ecbe16bacf2b3c5bda69c29fada66d1b645d18103612537576040518060400160405280600681526020017f4641524d45520000000000000000000000000000000000000000000000000000815250915050612705565b7ffbd454f36a7e1a388bd6fc3ab10d434aa4578f811acbbcf33afb1c697486313c810361259c576040518060400160405280600b81526020017f4449535452494255544f52000000000000000000000000000000000000000000815250915050612705565b7fe61decff6e4a5c6b5a3d3cbd28f882e595173563b49353ce5f31dba2de7f05ee8103612601576040518060400160405280600981526020017f50524f434553534f520000000000000000000000000000000000000000000000815250915050612705565b7f66108bb9ee7f804cb1c563794e51989792a366e4b648e4b2b9189d9587e1880d8103612666576040518060400160405280601181526020017f5155414c49545920494e53504543544f52000000000000000000000000000000815250915050612705565b7fa49807205ce4d355092ef5a8a18f56e8913cf4a201fbe287825b095693c2177581036126cb576040518060400160405280600581526020017f41444d494e000000000000000000000000000000000000000000000000000000815250915050612705565b6040518060400160405280600881526020017f435553544f4d45520000000000000000000000000000000000000000000000008152509150505b919050565b600c602052816000526040600020818154811061272657600080fd5b90600052602060002001600091509150505481565b7ffbd454f36a7e1a388bd6fc3ab10d434aa4578f811acbbcf33afb1c697486313c81565b7f7c6181838a71a779e445600d4c6ecbe16bacf2b3c5bda69c29fada66d1b645d181565b7fe61decff6e4a5c6b5a3d3cbd28f882e595173563b49353ce5f31dba2de7f05ee80600e60003373ffffffffffffffffffffffffffffffffffffffff1673ffffffffffffffffffffffffffffffffffffffff1681526020019081526020016000205414612825576040517f08c379a000000000000000000000000000000000000000000000000000000000815260040161281c90614338565b60405180910390fd5b61282d613625565b6000600660008581526020019081526020016000206040518061012001604052908160008201548152602001600182018054612868906142bb565b80601f0160208091040260200160405190810160405280929190818152602001828054612894906142bb565b80156128e15780601f106128b6576101008083540402835291602001916128e1565b820191906000526020600020905b8154815290600101906020018083116128c457829003601f168201915b505050505081526020016002820160009054906101000a900473ffffffffffffffffffffffffffffffffffffffff1673ffffffffffffffffffffffffffffffffffffffff1673ffffffffffffffffffffffffffffffffffffffff1681526020016003820154815260200160048201805461295a906142bb565b80601f0160208091040260200160405190810160405280929190818152602001828054612986906142bb565b80156129d35780601f106129a8576101008083540402835291602001916129d3565b820191906000526020600020905b8154815290600101906020018083116129b657829003601f168201915b50505050508152602001600582015481526020016006820180546129f6906142bb565b80601f0160208091040260200160405190810160405280929190818152602001828054612a22906142bb565b8015612a6f5780601f10612a4457610100808354040283529160200191612a6f565b820191906000526020600020905b815481529060010190602001808311612a5257829003601f168201915b50505050508152602001600782018054612a88906142bb565b80601f0160208091040260200160405190810160405280929190818152602001828054612ab4906142bb565b8015612b015780601f10612ad657610100808354040283529160200191612b01565b820191906000526020600020905b815481529060010190602001808311612ae457829003601f168201915b505050505081526020016008820160009054906101000a900460ff166005811115612b2f57612b2e613ee7565b5b6005811115612b4157612b40613ee7565b5b81525050905060006005811115612b5b57612b5a613ee7565b5b8161010001516005811115612b7357612b72613ee7565b5b14612bb3576040517f08c379a0000000000000000000000000000000000000000000000000000000008152600401612baa90614b52565b60405180910390fd5b8281606001511015612bfa576040517f08c379a0000000000000000000000000000000000000000000000000000000008152600401612bf190614be4565b60405180910390fd5b60008311612c3d576040517f08c379a0000000000000000000000000000000000000000000000000000000008152600401612c34906143ca565b60405180910390fd5b612c45613831565b858160000181815250508481602001818152505033816040019073ffffffffffffffffffffffffffffffffffffffff16908173ffffffffffffffffffffffffffffffffffffffff1681525050838160600181815250504281608001818152505060018160c001906005811115612cbe57612cbd613ee7565b5b90816005811115612cd257612cd1613ee7565b5b815250508382606001818151612ce89190614c33565b915081815250506000826060015103612d2e5760018261010001906005811115612d1557612d14613ee7565b5b90816005811115612d2957612d28613ee7565b5b815250505b60096000868152602001908152602001600020869080600181540180825580915050600190039060005260206000200160009091909190915055600c60003373ffffffffffffffffffffffffffffffffffffffff1673ffffffffffffffffffffffffffffffffffffffff1681526020019081526020016000208690806001815401808255809150506001900390600052602060002001600090919091909150558060076000888152602001908152602001600020600082015181600001556020820151816001015560408201518160020160006101000a81548173ffffffffffffffffffffffffffffffffffffffff021916908373ffffffffffffffffffffffffffffffffffffffff160217905550606082015181600301556080820151816004015560a0820151816005019081612e669190614628565b5060c08201518160060160006101000a81548160ff02191690836005811115612e9257612e91613ee7565b5b02179055509050503373ffffffffffffffffffffffffffffffffffffffff1685877f92c981022a3bd4ed54ac117f382b68f33b33d9ed49bb71d7d33607fe7dc9f38587604051612ee29190613ecc565b60405180910390a4505050505050565b6060600d60008373ffffffffffffffffffffffffffffffffffffffff1673ffffffffffffffffffffffffffffffffffffffff168152602001908152602001600020805480602002602001604051908101604052809291908181526020018280548015612f7d57602002820191906000526020600020905b815481526020019060010190808311612f69575b50505050509050919050565b7f2a5f906c256a5d799494fcd066e1f6c077689de1cdb65052a1624de4bace99bf80600e60003373ffffffffffffffffffffffffffffffffffffffff1673ffffffffffffffffffffffffffffffffffffffff168152602001908152602001600020541461302b576040517f08c379a000000000000000000000000000000000000000000000000000000000815260040161302290614338565b60405180910390fd5b613033613625565b60006007600060045481526020019081526020016000206040518060e001604052908160008201548152602001600182015481526020016002820160009054906101000a900473ffffffffffffffffffffffffffffffffffffffff1673ffffffffffffffffffffffffffffffffffffffff1673ffffffffffffffffffffffffffffffffffffffff16815260200160038201548152602001600482015481526020016005820180546130e3906142bb565b80601f016020809104026020016040519081016040528092919081815260200182805461310f906142bb565b801561315c5780601f106131315761010080835404028352916020019161315c565b820191906000526020600020905b81548152906001019060200180831161313f57829003601f168201915b505050505081526020016006820160009054906101000a900460ff16600581111561318a57613189613ee7565b5b600581111561319c5761319b613ee7565b5b815250509050600360058111156131b6576131b5613ee7565b5b8160c0015160058111156131cd576131cc613ee7565b5b1461320d576040517f08c379a000000000000000000000000000000000000000000000000000000000815260040161320490614cd9565b60405180910390fd5b8381606001511015613254576040517f08c379a000000000000000000000000000000000000000000000000000000000815260040161324b90614d45565b60405180910390fd5b60008411613297576040517f08c379a000000000000000000000000000000000000000000000000000000000815260040161328e906143ca565b60405180910390fd5b600083116132da576040517f08c379a00000000000000000000000000000000000000000000000000000000081526004016132d19061445c565b60405180910390fd5b60005b84811015613591576000600860008981526020019081526020016000206040518060c001604052908160008201548152602001600182015481526020016002820160009054906101000a900473ffffffffffffffffffffffffffffffffffffffff1673ffffffffffffffffffffffffffffffffffffffff1673ffffffffffffffffffffffffffffffffffffffff1681526020016003820160009054906101000a900473ffffffffffffffffffffffffffffffffffffffff1673ffffffffffffffffffffffffffffffffffffffff1673ffffffffffffffffffffffffffffffffffffffff168152602001600482015481526020016005820160009054906101000a900460ff1660058111156133f4576133f3613ee7565b5b600581111561340657613405613ee7565b5b815250509050878160000181815250508681602001818152505033816040019073ffffffffffffffffffffffffffffffffffffffff16908173ffffffffffffffffffffffffffffffffffffffff16815250508481608001818152505060048160a00190600581111561347b5761347a613ee7565b5b9081600581111561348f5761348e613ee7565b5b81525050600a6000888152602001908152602001600020889080600181540180825580915050600190039060005260206000200160009091909190915055600d60003373ffffffffffffffffffffffffffffffffffffffff1673ffffffffffffffffffffffffffffffffffffffff1681526020019081526020016000208890806001815401808255809150506001900390600052602060002001600090919091909150553373ffffffffffffffffffffffffffffffffffffffff1687897f09d8d0427eee16da63ed3bdac07fab84ec34ee2daec6f697a705a2d57b430db58860405161357b9190613ecc565b60405180910390a45080806001019150506132dd565b50836007600087815260200190815260200160002060030160008282546135b89190614c33565b92505081905550600060076000878152602001908152602001600020600301540361361d5760046007600087815260200190815260200160002060060160006101000a81548160ff0219169083600581111561361757613616613ee7565b5b02179055505b505050505050565b61362d6119dc565b15613664576040517fd93c066500000000000000000000000000000000000000000000000000000000815260040160405180910390fd5b565b61366e6137e9565b6000600160006101000a81548160ff0219169083151502179055507f5db9ee0a495bf2e6ff9c91a7834c1ba4fdd244a5e8aa4e537bd38aeae4b073aa6136b2613829565b6040516136bf9190614d65565b60405180910390a1565b6136d1613625565b60018060006101000a81548160ff0219169083151502179055507f62e78cea01bee320cd4e420270b5ea74000d11b0c9f74754ebdbfc544b05a258613714613829565b6040516137219190614d65565b60405180910390a1565b600260005403613767576040517f3ee5aeb500000000000000000000000000000000000000000000000000000000815260040160405180910390fd5b6002600081905550565b6001600081905550565b8060405160200161378c91906148f3565b60405160208183030381529060405280519060200120600e60008473ffffffffffffffffffffffffffffffffffffffff1673ffffffffffffffffffffffffffffffffffffffff168152602001908152602001600020819055505050565b6137f16119dc565b613827576040517f8dfc202b00000000000000000000000000000000000000000000000000000000815260040160405180910390fd5b565b600033905090565b6040518060e001604052806000815260200160008152602001600073ffffffffffffffffffffffffffffffffffffffff168152602001600081526020016000815260200160608152602001600060058111156138905761388f613ee7565b5b81525090565b6000604051905090565b600080fd5b600080fd5b6000819050919050565b6138bd816138aa565b81146138c857600080fd5b50565b6000813590506138da816138b4565b92915050565b6000602082840312156138f6576138f56138a0565b5b6000613904848285016138cb565b91505092915050565b600081519050919050565b600082825260208201905092915050565b6000819050602082019050919050565b613942816138aa565b82525050565b60006139548383613939565b60208301905092915050565b6000602082019050919050565b60006139788261390d565b6139828185613918565b935061398d83613929565b8060005b838110156139be5781516139a58882613948565b97506139b083613960565b925050600181019050613991565b5085935050505092915050565b600060208201905081810360008301526139e5818461396d565b905092915050565b6139f6816138aa565b82525050565b600073ffffffffffffffffffffffffffffffffffffffff82169050919050565b6000613a27826139fc565b9050919050565b613a3781613a1c565b82525050565b600081519050919050565b600082825260208201905092915050565b60005b83811015613a77578082015181840152602081019050613a5c565b60008484015250505050565b6000601f19601f8301169050919050565b6000613a9f82613a3d565b613aa98185613a48565b9350613ab9818560208601613a59565b613ac281613a83565b840191505092915050565b600061016082019050613ae3600083018e6139ed565b613af0602083018d6139ed565b613afd604083018c6139ed565b613b0a606083018b613a2e565b613b17608083018a613a2e565b613b2460a0830189613a2e565b613b3160c0830188613a2e565b81810360e0830152613b438187613a94565b9050818103610100830152613b588186613a94565b9050613b686101208301856139ed565b818103610140830152613b7b8184613a94565b90509c9b505050505050505050505050565b613b9681613a1c565b8114613ba157600080fd5b50565b600081359050613bb381613b8d565b92915050565b600060208284031215613bcf57613bce6138a0565b5b6000613bdd84828501613ba4565b91505092915050565b600080fd5b600080fd5b7f4e487b7100000000000000000000000000000000000000000000000000000000600052604160045260246000fd5b613c2882613a83565b810181811067ffffffffffffffff82111715613c4757613c46613bf0565b5b80604052505050565b6000613c5a613896565b9050613c668282613c1f565b919050565b600067ffffffffffffffff821115613c8657613c85613bf0565b5b613c8f82613a83565b9050602081019050919050565b82818337600083830152505050565b6000613cbe613cb984613c6b565b613c50565b905082815260208101848484011115613cda57613cd9613beb565b5b613ce5848285613c9c565b509392505050565b600082601f830112613d0257613d01613be6565b5b8135613d12848260208601613cab565b91505092915050565b60008060008060008060c08789031215613d3857613d376138a0565b5b6000613d4689828a016138cb565b965050602087013567ffffffffffffffff811115613d6757613d666138a5565b5b613d7389828a01613ced565b9550506040613d8489828a016138cb565b945050606087013567ffffffffffffffff811115613da557613da46138a5565b5b613db189828a01613ced565b9350506080613dc289828a016138cb565b92505060a087013567ffffffffffffffff811115613de357613de26138a5565b5b613def89828a01613ced565b9150509295509295509295565b60008060408385031215613e1357613e126138a0565b5b6000613e21858286016138cb565b925050602083013567ffffffffffffffff811115613e4257613e416138a5565b5b613e4e85828601613ced565b9150509250929050565b6000819050919050565b613e6b81613e58565b82525050565b6000602082019050613e866000830184613e62565b92915050565b60008060408385031215613ea357613ea26138a0565b5b6000613eb185828601613ba4565b9250506020613ec2858286016138cb565b9150509250929050565b6000602082019050613ee160008301846139ed565b92915050565b7f4e487b7100000000000000000000000000000000000000000000000000000000600052602160045260246000fd5b60068110613f2757613f26613ee7565b5b50565b6000819050613f3882613f16565b919050565b6000613f4882613f2a565b9050919050565b613f5881613f3d565b82525050565b600060c082019050613f7360008301896139ed565b613f8060208301886139ed565b613f8d6040830187613a2e565b613f9a6060830186613a2e565b613fa760808301856139ed565b613fb460a0830184613f4f565b979650505050505050565b60008115159050919050565b613fd481613fbf565b82525050565b6000602082019050613fef6000830184613fcb565b92915050565b60006101208201905061400b600083018c6139ed565b818103602083015261401d818b613a94565b905061402c604083018a613a2e565b61403960608301896139ed565b818103608083015261404b8188613a94565b905061405a60a08301876139ed565b81810360c083015261406c8186613a94565b905081810360e08301526140808185613a94565b9050614090610100830184613f4f565b9a9950505050505050505050565b600060e0820190506140b3600083018a6139ed565b6140c060208301896139ed565b6140cd6040830188613a2e565b6140da60608301876139ed565b6140e760808301866139ed565b81810360a08301526140f98185613a94565b905061410860c0830184613f4f565b98975050505050505050565b6000806040838503121561412b5761412a6138a0565b5b6000614139858286016138cb565b925050602061414a858286016138cb565b9150509250929050565b6000806040838503121561416b5761416a6138a0565b5b600061417985828601613ba4565b925050602083013567ffffffffffffffff81111561419a576141996138a5565b5b6141a685828601613ced565b9150509250929050565b600060208201905081810360008301526141ca8184613a94565b905092915050565b6000806000606084860312156141eb576141ea6138a0565b5b60006141f9868287016138cb565b935050602061420a868287016138cb565b925050604061421b868287016138cb565b9150509250925092565b6000806000806080858703121561423f5761423e6138a0565b5b600061424d878288016138cb565b945050602061425e878288016138cb565b935050604061426f878288016138cb565b9250506060614280878288016138cb565b91505092959194509250565b7f4e487b7100000000000000000000000000000000000000000000000000000000600052602260045260246000fd5b600060028204905060018216806142d357607f821691505b6020821081036142e6576142e561428c565b5b50919050565b7f756e617574686f72697a65642063616c6c657200000000000000000000000000600082015250565b6000614322601383613a48565b915061432d826142ec565b602082019050919050565b6000602082019050818103600083015261435181614315565b9050919050565b7f5175616e74697479206d7573742062652067726561746572207468616e207a6560008201527f726f000000000000000000000000000000000000000000000000000000000000602082015250565b60006143b4602283613a48565b91506143bf82614358565b604082019050919050565b600060208201905081810360008301526143e3816143a7565b9050919050565b7f50726963652070657220756e6974206d7573742062652067726561746572207460008201527f68616e207a65726f000000000000000000000000000000000000000000000000602082015250565b6000614446602883613a48565b9150614451826143ea565b604082019050919050565b6000602082019050818103600083015261447581614439565b9050919050565b60008190508160005260206000209050919050565b60006020601f8301049050919050565b600082821b905092915050565b6000600883026144de7fffffffffffffffffffffffffffffffffffffffffffffffffffffffffffffffff826144a1565b6144e886836144a1565b95508019841693508086168417925050509392505050565b6000819050919050565b600061452561452061451b846138aa565b614500565b6138aa565b9050919050565b6000819050919050565b61453f8361450a565b61455361454b8261452c565b8484546144ae565b825550505050565b600090565b61456861455b565b614573818484614536565b505050565b5b818110156145975761458c600082614560565b600181019050614579565b5050565b601f8211156145dc576145ad8161447c565b6145b684614491565b810160208510156145c5578190505b6145d96145d185614491565b830182614578565b50505b505050565b600082821c905092915050565b60006145ff600019846008026145e1565b1980831691505092915050565b600061461883836145ee565b9150826002028217905092915050565b61463182613a3d565b67ffffffffffffffff81111561464a57614649613bf0565b5b61465482546142bb565b61465f82828561459b565b600060209050601f8311600181146146925760008415614680578287015190505b61468a858261460c565b8655506146f2565b601f1984166146a08661447c565b60005b828110156146c8578489015182556001820191506020850194506020810190506146a3565b868310156146e557848901516146e1601f8916826145ee565b8355505b6001600288020188555050505b505050505050565b600081549050614709816142bb565b9050919050565b81810361471e5750506147f6565b614727826146fa565b67ffffffffffffffff8111156147405761473f613bf0565b5b61474a82546142bb565b61475582828561459b565b6000601f8311600181146147845760008415614772578287015490505b61477c858261460c565b8655506147ef565b601f1984166147928761447c565b965061479d8661447c565b60005b828110156147c5578489015482556001820191506001850194506020810190506147a0565b868310156147e257848901546147de601f8916826145ee565b8355505b6001600288020188555050505b5050505050505b565b600060808201905081810360008301526148128187613a94565b905061482160208301866139ed565b81810360408301526148338185613a94565b905061484260608301846139ed565b95945050505050565b7f4261746368206d75737420626520696e2050726f636573736564207374617465600082015250565b6000614881602083613a48565b915061488c8261484b565b602082019050919050565b600060208201905081810360008301526148b081614874565b9050919050565b600081905092915050565b60006148cd82613a3d565b6148d781856148b7565b93506148e7818560208601613a59565b80840191505092915050565b60006148ff82846148c2565b915081905092915050565b7f537570706c696573206d75737420626520726567697374657265640000000000600082015250565b6000614940601b83613a48565b915061494b8261490a565b602082019050919050565b6000602082019050818103600083015261496f81614933565b9050919050565b7f4261746368206d75737420626520696e205175616c697479436865636b65642060008201527f7374617465000000000000000000000000000000000000000000000000000000602082015250565b60006149d2602583613a48565b91506149dd82614976565b604082019050919050565b60006020820190508181036000830152614a01816149c5565b9050919050565b7f556e6974206d75737420626520696e2052657461696c65642073746174650000600082015250565b6000614a3e601e83613a48565b9150614a4982614a08565b602082019050919050565b60006020820190508181036000830152614a6d81614a31565b9050919050565b7f496e73756666696369656e74207061796d656e74000000000000000000000000600082015250565b6000614aaa601483613a48565b9150614ab582614a74565b602082019050919050565b60006020820190508181036000830152614ad981614a9d565b9050919050565b7f42756c6b20737570706c79206d75737420626520696e2052656769737465726560008201527f6420737461746500000000000000000000000000000000000000000000000000602082015250565b6000614b3c602783613a48565b9150614b4782614ae0565b604082019050919050565b60006020820190508181036000830152614b6b81614b2f565b9050919050565b7f496e73756666696369656e74207175616e7469747920696e2062756c6b20737560008201527f70706c7900000000000000000000000000000000000000000000000000000000602082015250565b6000614bce602483613a48565b9150614bd982614b72565b604082019050919050565b60006020820190508181036000830152614bfd81614bc1565b9050919050565b7f4e487b7100000000000000000000000000000000000000000000000000000000600052601160045260246000fd5b6000614c3e826138aa565b9150614c49836138aa565b9250828203905081811115614c6157614c60614c04565b5b92915050565b7f4261746368206d75737420626520696e2044697374726962757465642073746160008201527f7465000000000000000000000000000000000000000000000000000000000000602082015250565b6000614cc3602283613a48565b9150614cce82614c67565b604082019050919050565b60006020820190508181036000830152614cf281614cb6565b9050919050565b7f496e73756666696369656e74207175616e7469747920696e2062617463680000600082015250565b6000614d2f601e83613a48565b9150614d3a82614cf9565b602082019050919050565b60006020820190508181036000830152614d5e81614d22565b9050919050565b6000602082019050614d7a6000830184613a2e565b9291505056fea26469706673582212200d632dddac3663f3a5e330729edf83089149cfb9515c8f5fa757808309b8add964736f6c634300081b0033",
  "linkReferences": {},
  "deployedLinkReferences": {}
}